:020000040800F2
:100000006F00C015000000000000000000000000AC
:1000100000000000000000000000000000000000E0
:1000200000000000000000000000000000000000D0
:1000300000000000000000000000000000000000C0
:1000400000000000000000000000000000000000B0
:1000500000000000000000000000000000000000A0
:100060000000000000000000000000000000000090
:100070000000000000000000000000000000000080
:100080000000000000000000000000000000000070
:100090000000000000000000000000000000000060
:1000A0000000000000000000000000000000000050
:1000B0000000000000000000000000000000000040
:1000C0000000000000000000000000000000000030
:1000D0000000000000000000000000000000000020
:1000E0000000000000000000000000000000000010
:1000F0000000000000000000000000000000000000
:1001000000000000000000000000000000000000EF
:1001100000000000000000000000000000000000DF
:1001200000000000000000000000000000000000CF
:1001300000000000000000000000000000000000BF
:1001400000000000000000000000000000000000AF
:100150000000000000000000000000007370043088
:10016000170500001305C5FF930510009395D501F1
:10017000637EB50093D52500637AB50017050000AE
:10018000130505013305B500670005009302002043
:1001900073A0027D970200009382C2E673907230D2
:1001A00097020000938202467390C27E73E0C07E85
:1001B0009702000093820235739052309701001825
:1001C0009381416A178100181301C1E317150000DC
:1001D000130585CC970500189385C5E2170600180E
:1001E0001306C6E863FCC5008322050023A0550062
:1001F0001305450093854500E3E8C5FE1705001883
:100200001305C5E69385018A6378B50023200500B0
:1002100013054500E36CB5FE73F0023217150000BC
:100220001305C582EF00007DEF00D0071305000025
:1002300093050000EF0000086F00007D6F000000D4
:1002400073E002326780000073F0023267800000C2
:10028000307800000A50726F6772616D2068617388
:1002900020657869746564207769746820636F6489
:1002A000653A00006E6D690A0000000074726170AA
:1002B0000A000000130101FF2324810037140140CC
:1002C000232611001304048093060008130630004F
:1002D0009305000113050400EF0000626FF0DFFEDC
:1002E000B70700D223800700A385070093174500B6
:1002F000371500D23305F500B71700D263E4A70025
:100300006780000023A00700938707016FF01FFF9D
:10031000F327503093F707FC93E73700739057307B
:1003200067800000130101FF23229100B7440140C0
:10033000232481009375F50F1304050013850480B1
:100340002326110093840480EF0040689305700019
:1003500013850400EF004068E30A05FE8320C10016
:1003600013050400032481008324410013010101CB
:1003700067800000130101FE232C8100232A9100D5
:100380002328210123263101232E11009304060086
:10039000138405003389C5009309A0006312240368
:1003A0008320C10103248101032901018329C100A4
:1003B00013850400832441011301010267800000BA
:1003C00003450400EFF01FF68347040063963701EE
:1003D0001305D000EFF01FF5130414006FF01FFC9D
:1003E000130101FD2320210313890500B70500082F
:1003F00013062000938505282324810223229102DD
:10040000232E3101232C4101232A510123261102DD
:10041000930405001304C001EF009003130AF000D9
:10042000930A90009309C0FFB3178A00B3F727011E
:10043000B3D7870093F7F70F63E8FA0493870703AE
:100440009397870193D78741130610009305F10016
:10045000138504001304C4FFA307F100EF00407FDD
:10046000E31434FD8320C10203248102832441026A
:10047000032901028329C101032A8101832A410141
:100480001301010367800000938777036FF05FFB20
:10049000130101FDB7050008232481021306F001B2
:1004A0001304050093854528130501002326110236
:1004B000EF00C0691306E001930501001305200059
:1004C000EF0000799305040013052000EFF05FF1C1
:1004D000B7050008130610009385052B13052000AF
:1004E000EF0000776F000000000000000000000037
:1004F00000000000000000000000000000000000FC
:10050000130101FB23201100232241002324510069
:100510002326610023287100232AA100232CB10087
:10052000232EC1002320D1022322E1022324F10241
:100530002326010323281103232AC103232CD103DB
:10054000232EE1032320F105F3221034232051044C
:10055000F322003023225104F322407C232451044F
:100560007325203493050100EF00C0178322010496
:1005700073901234832241047390023083228104E9
:100580007390427C8320010003224100832281007A
:100590000323C10083230101032541018325810138
:1005A0000326C1018326010203274102832781021A
:1005B0000328C10283280103032E4103832E8103F4
:1005C000032FC103832F01041301010573002030A1
:1005D000000000000000000000000000000000001B
:1005E000000000000000000000000000000000000B
:1005F00000000000000000000000000000000000FB
:10060000130101FB23201100232241002324510068
:100610002326610023287100232AA100232CB10086
:10062000232EC1002320D1022322E1022324F10240
:100630002326010323281103232AC103232CD103DA
:10064000232EE1032320F10573D0E87E7350F97E59
:1006500073D0B97EF390D07E737004308322C104CE
:100660007390427C8322810473901234832241046C
:1006700073902234832001000322410083228100F1
:100680000323C10083230101032541018325810147
:100690000326C10183260102032741028327810229
:1006A0000328C10283280103032E4103832E810303
:1006B000032FC103832F01041301010573002030B0
:1006C000B7050008130101FF130650009385452A62
:1006D0001305100023261100EF00805713051000AA
:1006E000EFF01FDB130101FFB71700002324810087
:1006F000232611009387F7FF130405006314F50008
:10070000EFF01FFCB7050008130650009385C52ABB
:1007100013051000EF00C05313050400EFF05FD77E
:10072000130101FF23261100EF00000213057005DD
:10073000EFF01FBBEFF0DFBD8320C100130101010B
:100740006FF01FB067800000B717024003A70700D3
:10075000B706FFE09386C6001367170023A0E700E3
:1007600003A747003377D70023A2E70003A70700BA
:10077000B706F7FE9386F6FF3377D70023A0E7008E
:1007800003A70700B706FCFF9386F6FF3377D70071
:1007900023A0E70003A74700B70601DF9386F6FF13
:1007A0003377D70023A2E70023A6070203A7070099
:1007B000B706F7EA9386F6FF3377D70023A0E70062
:1007C0003707FF0023A4E70083A6070037070100CF
:1007D000B3E6E60023A0D7009307F7FF37170240E0
:1007E000832607001396E600634606009387F7FF0B
:1007F000E39807FEB717024003A707009316E70028
:1008000063C406006F00000003A74700B706C4DFFB
:100810009386F6FF23A2E70003A7470023A2E70081
:1008200003A747001367074023A2E70003A7470079
:100830003377D70023A2E70003A74700B706292094
:100840003367D70023A2E70003A7C702B7F6FEFF6E
:100850003377D70023A6E70203A7C702B706010034
:10086000938616F13367D70023A6E70203A7070094
:10087000B70600043367D70023A0E700B71702408C
:1008800003A7070093164700E3DC06FE03A7070053
:10089000B70600103367D70023A0E700B717024060
:1008A00003A7070093162700E3DC06FE03A7070053
:1008B000B70600013367D70023A0E700B71702404F
:1008C00003A7070093166700E3DC06FE03A74700B3
:1008D0001377C7FF23A2E70003A74700136727008A
:1008E00023A2E700371702408327470093F78700CA
:1008F000E38C07FE6780000093F7050193F8F5008D
:1009000063840700B3E8C80093070000130E1000CB
:10091000930EF000130F8002930F800413038000E6
:100920003316FE003376D6006306060213972700BF
:10093000832205003398EE001348F8FF33785800FF
:100940003397E800336707016396E507232AC5005C
:100950002320E50093871700E39467FC130E100033
:10096000930EF000130F8002930F80041303000115
:100970003316FE003376D60063080602139727006D
:10098000130707FE832245003398EE001348F8FF53
:10099000337858003397E800336707016392E50323
:1009A000232AC5002322E50093871700E39267FC02
:1009B00067800000E39EF5F92328C5006FF05FF91A
:1009C000E392F5FF2328C5006FF0DFFD93F5F51FD7
:1009D0002322B5006780000093D7650093F7F73FA7
:1009E000B387A70003A507003355B500137515009D
:1009F00067800000930505009306000013060000C1
:100A0000130500006F00C02A130101FF2324810099
:100A100023261100970700009387873413040500ED
:100A20006386070093050000EF00403317050000C0
:100A3000032545468327850263840700E780070076
:100A400013050400EFF0DFA4130101FF9707000076
:100A50009387874423248100170400001304C443B0
:100A60003304F44023229100232611001354244020
:100A700093840700631C0400032481008320C100C9
:100A800083244100130101016FF0DFCB1304F4FF55
:100A900093172400B387F40083A70700E7800700BB
:100AA0006FF05FFD130101FF970700009387C73EBA
:100AB00023248100170400001304043E3304F4408F
:100AC00023229100232021012326110013542440C6
:100AD000930400001389070063928404EFF05FC45D
:100AE000970700009387473B170400001304C43A9C
:100AF0003304F44013542440930400001389070086
:100B0000639A84028320C10003248100832441006E
:100B1000032901001301010167800000939724005D
:100B2000B307F90083A7070093841400E780070048
:100B30006FF09FFA93972400B307F90083A707008B
:100B400093841400E78007006FF09FFBB3C7A500F4
:100B500093F73700B306C50063960700930730008C
:100B600063E2C702930705006378D50C03C705004D
:100B70009387170093851500A38FE7FEE3E8D7FE60
:100B8000678000001377350093070500630E0700A8
:100B900003C705009387170093851500A38FE7FE11
:100BA00013F737006FF09FFE13F7C6FF130607FE1B
:100BB00063FCC70483A3050083A2450083AF8500BF
:100BC00003AFC50083AE050103AE450103A3850154
:100BD00083A8C50123A0770023A2570003A805021C
:100BE00023A4F70123A6E70123A8D70123AAC7015D
:100BF00023AC670023AE1701938545029387470214
:100C000023AE07FF6FF0DFFA138805001386070095
:100C10006366E6021388D7FF1306000063680701C6
:100C2000130737003307F7401376C7FFB387C700B2
:100C3000B385C500E3ECD7F2678000008328080085
:100C40001306460013084800232E16FF6FF05FFCC2
:100C500093060600138605009305050017F5FF1798
:100C6000032545406F004000130101FF232481004C
:100C7000130405001385050093050600138606007E
:100C800023AC018823261100EFF0CFEE9307F0FF8D
:100C90006318F50083A78189638407002320F4008B
:100CA0008320C1000324810013010101678000003B
:100CB0009308050017F5FF171305453B832705002B
:100CC0006396070217F7FF171307873A2320E500FB
:100CD00017F5FFF7130505339307070063080500B1
:100CE000832705002324F7089307070003A747007D
:100CF0001308F0011305F0FF6340E806638208045F
:100D000003A88708630A0804131527003305A80001
:100D10002320C50003230810130610003316E60035
:100D20003363C300232068102320D50893062000D6
:100D30006398D8008326481033E6C6002322C810E3
:100D4000930617001317270023A2D700B387E700E5
:100D500023A4B7001305000067800000130101FD04
:100D6000232C4101232A51012328610123267101EB
:100D7000232611022324810223229102232021030E
:100D8000232E310123248101930A0500138A0500D3
:100D900017FBFF17130B8B2D930B100003240B0075
:100DA000630E040083244400832984081389F4FF1C
:100DB00093942400B3049400635A09028320C1026F
:100DC0000324810283244102032901028329C101F2
:100DD000032A8101832A4101032B0101832BC100D6
:100DE000032C8100130101036780000063020A02E3
:100DF000639809001309F9FF9384C4FF6FF0DFFBC8
:100E000093172900B387F90083A70708E39447FFE6
:100E10000327440083A744001307F7FF631E27033B
:100E200023222401E38807FC032C4400638A090081
:100E300083A6091033972B01B376D700639206027D
:100E4000E78007000327440083270B00E31887F59A
:100E5000E302F4FA6FF09FF423A204006FF09FFC0A
:100E600093162900B386D90083A5060083A64910EE
:100E70003377D7006318070013850A00E78007005F
:100E80006FF05FFC13850500E78007006FF09FFBA4
:040E9000000000203E
:100E9400000000000000000000000000000000004E
:100EA400000000000000000000000000000000003E
:100EB400000000000000000000000000000000002E
:100EC400000000000000000000000000000000001E
:100ED400000000000000000000000000000000000E
:100EE40000000000000000000000000000000000FE
:080EF4000000002000000000D6
:040000050800015C92
:00000001FF
